:020000040800F2
:10000000901D0020B59300088D9200088F92000883
:100010009192000893920008959200080000000059
:100020000000000000000000000000006D870008D4
:1000300097920008000000001587000899920008B8
:10004000DF930008E3930008E7930008EB930008B0
:10005000EF930008F3930008F7930008FB93000860
:10006000FF93000803940008079400080B9400080D
:100070000F94000813940008179400081B940008BC
:100080001F94000823940008279400082B9400086C
:100090002F94000833940008379400083B9400081C
:1000A0003F9400089D92000843940008479400087C
:1000B000A39200084B9400084F9400085394000842
:1000C000579400085B9400085F940008639400084C
:1000D000679400086B9400086F940008A9920008C8
:1000E000BD92000873940008779400087B94000880
:1000F0007F94000883940008879400088B9400087C
:100100008F94000893940008979400089B9400082B
:100110009F940008A3940008A7940008AB940008DB
:10012000AF940008B3940008B7940008BB9400088B
:10013000BF940008C3940008C7940008CB9400083B
:10014000CF940008D3940008D7940008DB940008EB
:10015000DF940008E3940008E7940008EB9400089B
:10016000EF940008F3940008F7940008FB9400084B
:10017000FF940008039500080795000800000000A0
:100180000B9500080F9500081395000817950008B7
:100190001B9500081F950008239500082795000867
:1001A0002B9500082F9500083395000870B50024A2
:1001B0001D4DA4F1500001F0E9FC00F014F80021FD
:1001C000102001F0FDFC002632062819120D4021F6
:1001D000805C01F0F5FC761CF0B25828F4DB641C5E
:1001E000102CE6DB70BD0021002001F0E9BC58288E
:1001F00000DB704770B50B46802B13DA9D0803EBCC
:100200005576F6080124A3EBC60304FA03F3064C63
:10021000C90804EB0010002A445C14BF234324EAFD
:100220000303435470BD0000A80C00202DE9FE4FCD
:10023000074618460190DB08B0EBC30018BF012049
:100240000D469DF80810DDF830B000EBD1019DF8A7
:100250000800400848435FFA80FAA2F12000C0B2CB
:10026000A8460026009002E045467F1C761C5645B5
:1002700034DA9DF808000C2804D0102806D018287D
:100280000BD011E0DDF8002015A10AE000980FF274
:10029000C44101EB0012945D06E0009A0FF6A42120
:1002A000242042438818845D4FF00809200648BF87
:1002B0005A4603D4BBF101029241D20FE9B2F8B21F
:1002C000FFF795FF6D1CE8B201996400A0EB0800F0
:1002D0008842C9D0B9F10109E8D1C7E7BDE8F78F75
:1002E000000000000000000000000000000000000E
:1002F0003F400000000000000000300040003000DF
:100300004000000009000BC03D000BC03D0009008B
:1003100018C024407FE0224031800000180024C033
:100320001B000D803240018003801C4027401C8050
:1003300007400040100060000000000000000000C6
:100340000000000000001F802040402000004020EE
:1003500020401F8000000000090006001F800600EA
:1003600009000000040004003F80040004000000B5
:100370000010006000000000000000000400040005
:100380000400040004000000000000400000000021
:1003900000000000002001C00600380040000000FE
:1003A0001F802040204020401F800000000010409F
:1003B0003FC000400000000018C0214022402440FF
:1003C0001840000010802040244024401B80000082
:1003D00002000D0011003FC0014000003C8024409D
:1003E00024402440238000001F80244024403440C7
:1003F000038000003000200027C0380020000000EB
:100400001B802440244024401B8000001C0022C08C
:10041000224022401F800000000000000840000031
:100420000000000000000000046000000000000068
:10043000000004000A00110020804040090009006B
:100440000900090009000000000040402080110060
:100450000A000400180020002340240018000000B7
:100460001FC00F800700020000000000004007C00E
:1004700039000F0001C0004020403FC0244024400C
:100480001B8000001F802040204020403080000062
:1004900020403FC0204020401F80000020403FC03F
:1004A00024402E4030C0000020403FC024402E0099
:1004B000300000000F0010802040224033800200F6
:1004C00020403FC0040004003FC0204020402040A6
:1004D0003FC02040204000000060202020203FC07E
:1004E0002000200020403FC024400B0030C02040AE
:1004F00020403FC020400040004000C03FC03C00C2
:1005000003C03C003FC0000020403FC00C4023001F
:100510003FC020001F802040204020401F8000005E
:1005200020403FC024402400180000001F802140CC
:10053000214020E01FA0000020403FC024402600B2
:1005400019C0004018C024402440224031800000DF
:10055000300020403FC020403000000020003F809D
:10056000004000403F80200020003E0001C0070006
:1005700038002000380007C03C0007C038000000E9
:10058000204039C0060039C020400000200038401B
:1005900007C0384020000000304021C026403840CD
:1005A00020C00000000000007FE04020402000004C
:1005B000000070000C00038000400000000040209C
:1005C00040207FE0000000000000200040002000EC
:1005D00000000000001000100010001000100010BB
:1005E0000000000040000000000000000000028049
:1005F0000540054003C0004020003FC004400440C7
:100600000380000000000380044004400640000016
:1006100000000380044024403FC0004000000380ED
:100620000540054003400000000004401FC0244076
:1006300024402000000002E0055005500650042030
:1006400020403FC00440040003C0004000000440BC
:1006500027C000400000000000100010041027E038
:100660000000000020403FC00140070004C00440DB
:10067000204020403FC000400040000007C0040070
:1006800007C0040003C00000044007C00440040089
:1006900003C00040000003800440044003800000C9
:1006A000041007F0045004400380000000000380A1
:1006B0000440045007F00010044007C0024004004A
:1006C00004000000000006400540054004C0000092
:1006D000000004001F800440004000000400078068
:1006E0000040044007C000400400070004C001802F
:1006F00006000400060001C0070001C0060000005B
:10070000044006C0010006C00440000004100710A9
:1007100004E00180060004000000044005C006401B
:10072000044000000000000004007BE040200000C6
:10073000000000000000FFF000000000000040206A
:100740007BE0040000000000060006000600060032
:1007500006003FC000000000000000000000000094
:10076000000000000000000000001FCC000C000092
:1007700000000000000008003000600008003000A9
:1007800060000000022003FC1E20022003FC1E204B
:100790000220000000000E1811043FFF10840C78A6
:1007A000000000000F0010840F3800C00778188484
:1007B0000078000000780F8410C411240E9800E423
:1007C00000840008080068007000000000000000BD
:1007D0000000000000000000000007E018182004DE
:1007E00040020000000040022004181807E000004A
:1007F000000000000240024001800FF00180024032
:10080000024000000080008000800FF8008000801F
:10081000008000000001000D000E0000000000003C
:100820000000000000000080008000800080008048
:10083000008000800000000C000C000000000000A0
:1008400000000000000000060018006001800600A3
:1008500018002000000007F0080810041004080821
:1008600007F000000000080408041FFC0004000456
:100870000000000000000E0C10141024104411841D
:100880000E0C000000000C18100411041104128852
:100890000C700000000000E00320042408241FFC6A
:1008A0000024000000001F98108411041104108817
:1008B00010700000000007F0088811041104188867
:1008C0000070000000001C00100010FC13001C0051
:1008D0001000000000000E381144108410841144F0
:1008E0000E38000000000700088C104410440888EF
:1008F00007F00000000000000000030C030C0000E3
:1009000000000000000000000001010600000000DF
:1009100000000000000000800140022004100808D0
:1009200010040000022002200220022002200220E7
:1009300002200000000010040808041002200140FA
:100940000080000000000E001200100C106C1080DF
:100950000F00000003E00C1813E4142417C4082847
:1009600007D000000004003C03C41C40074000E422
:10097000001C000410041FFC1104110411040E8853
:100980000070000003E00C1810041004100410089C
:100990001C10000010041FFC1004100410040808B0
:1009A00007F0000010041FFC1104110417C4100408
:1009B0000818000010041FFC1104110017C01000DB
:1009C0000800000003E00C181004100410441C7808
:1009D0000040000010041FFC108400800080108480
:1009E0001FFC10040000100410041FFC100410046D
:1009F0000000000000030001100110011FFE1000A4
:100A00001000000010041FFC110403801464181C63
:100A10001004000010041FFC100400040004000473
:100A2000000C000010041FFC1F0000FC1F001FFC36
:100A30001004000010041FFC0C04030000E0101858
:100A40001FFC100007F00808100410041004080828
:100A500007F0000010041FFC10841080108010802C
:100A60000F00000007F0081810241024101C080ABA
:100A700007F2000010041FFC1104110011C0113016
:100A80000E0C000400000E1C11041084108410448D
:100A90001C3800001800100010041FFC1004100087
:100AA0001800000010001FF81004000400041004D7
:100AB0001FF8100010001E0011E0001C00701380D1
:100AC0001C0010001FC0103C00E01F0000E0103CA4
:100AD0001FC000001004180C163401C001C01634E9
:100AE000180C100410001C00130400FC13041C005C
:100AF000100000000804101C1064108413041C046F
:100B0000101800000000000000007FFE40024002BC
:100B100040020000000030000C0003800060001C58
:100B20000003000000004002400240027FFE00007F
:100B300000000000000000002000400040004000D5
:100B4000200000000001000100010001000100017F
:100B500000010001000040004000200000000000F3
:100B600000000000000000980124014401440144F9
:100B700000FC000410001FFC008801040104008830
:100B800000700000000000700088010401040104EE
:100B900000880000000000700088010401041108B2
:100BA0001FFC0004000000F801440144014401441A
:100BB00000C800000000010401040FFC110411042E
:100BC00011001800000000D601290129012901C9DE
:100BD0000106000010041FFC008401000100010454
:100BE00000FC000400000104190419FC00040004C6
:100BF000000000000000000300010101190119FEBE
:100C00000000000010041FFC0024004001B4010C8F
:100C1000010400000000100410041FFC0004000484
:100C200000000000010401FC0104010001FC0104BA
:100C3000010000FC010401FC00840100010001042A
:100C400000FC0004000000F8010401040104010498
:100C500000F80000010101FF008501040104008883
:100C6000007000000000007000880104010401050C
:100C700001FF00010104010401FC008401040100E2
:100C800001800000000000CC012401240124012483
:100C90000198000000000100010007F801040104B0
:100CA00000000000010001F8000400040004010835
:100CB00001FC0004010001800170000C00100160C3
:100CC0000180010001F0010C003001C00030010C76
:100CD00001F0010000000104018C00740170018C1E
:100CE00001040000010101810171000E0018016082
:100CF0000180010000000184010C013401440184E1
:100D0000010C0000000000000000000001003EFC9B
:100D1000400240020000000000000000FFFF000051
:100D2000000000000000400240023EFC0100000004
:100D300000000000000060008000800040004000D3
:100D40002000200000000000000000000000000063
:100D50000000000000000000000000000000000093
:100D60000000000000000000000000000000000083
:100D7000000000000000000F80380FFE380F8038A0
:100D80000000000000000000000000000000000063
:100D900000000100000600000C00003800003100D7
:100DA000000600000C0000380000300000000000C9
:100DB0000000000061800067F807F9800061800092
:100DC00061800061800061800067F807F980006140
:100DD0008000000000000000000001C0E003E0F01F
:100DE0000630080418081FFFFE040E080787F003EA
:100DF00081E000000000000001F000060C00040487
:100E000008060C7001F9C0000E00003BE000EC1871
:100E1000070808040C180003E00000000001E000CF
:100E200007F003F818041C0804170807E1D003C0F2
:100E3000E00023B0003C0800200800001000000083
:100E40000000000100003100003200001C00000022
:100E50000000000000000000000000000000000092
:100E60000000000000000000000000000000000082
:100E7000000000007F0001FFC00780F00C00181088
:100E8000000420000200000000000020000210000A
:100E9000040C00180780F001FFC0007F0000000074
:100EA0000000000000000000000000000000000042
:100EB0004200006600006600003C0000180003FFCE
:100EC000C0001800003C0000660000660000420000
:100ED00000000000080000080000080000080000F2
:100EE000080001FFC000080000080000080000081A
:100EF0000000080000000000000100003100003286
:100F000000001C00000000000000000000000000C5
:100F100000000000000000000000000008000008C1
:100F20000000080000080000080000080000080099
:100F30000008000008000008000000000000000099
:100F400000000000380000380000380000000000F9
:100F50000000000000000000000000000000000091
:100F600000000000000600001C000070000180006E
:100F70000E0000380000C0000700001C0000300018
:100F800000000000000000007F8001FFE00380708F
:100F90000600180400080400080600180380700109
:100FA000FFE0007F80000000000000000000010062
:100FB0000801000801000803FFF807FFF800000817
:100FC0000000080000080000000000000000000110
:100FD000C03802C058040098040118040218040420
:100FE00018061C1803F81801E0F8000000000000C3
:100FF00000000001C0E003C0F00400080408080479
:10100000080806180803F41801E7F00001E00000E2
:1010100000000000000000000300000D00001100AF
:1010200000610000810803010807FFF80FFFF800C6
:1010300001080001080000000000000000E007FCBB
:10104000D00608080610080610080610080618380A
:10105000060FF00607C000000000000000000000BE
:101060003F8001FFE00384300208180410080410D8
:1010700008041008071810030FF00007C000000054
:1010800000000000000003C000070000060000068A
:1010900000F80607F806180006E000070000060042
:1010A0000000000000000001E1E003F7F00634104A
:1010B000041808041808040C08040C080616180381
:1010C000F3F001C1E000000000000000F80003FCA4
:1010D000300306380402080402080402080404105D
:1010E0000308F001FFC0007F0000000000000000C6
:1010F00000000000000000000000000070380070D8
:1011000038007038000000000000000000000000FF
:1011100000000000000000000000000000000000CF
:10112000301A00301C000000000000000000000029
:101130000000000000000000000000080000140093
:1011400000220000410000808001004002002004D5
:10115000001008000800000000000000210000212D
:1011600000002100002100002100002100002100DA
:10117000002100002100002100000000000000000C
:101180000000080008040010020020010040008058
:101190008000410000220000140000080000000050
:1011A00000000003C00004C000040000080038086C
:1011B0000F380808380810000C300007E00003C0A2
:1011C00000000000000000003F8000FFE00380708E
:1011D000020F1006708804C088048308047F880208
:1011E000C09003012000FE4000000800001800012C
:1011F000F8003E0801C20007020007E20000FE00FE
:10120000001FC80001F800003800000804000807AB
:10121000FFF807FFF8040808040808040808040891
:101220000806180803F41801E7F00001E0000000C8
:10123000000000003F8001FFE003807002001804FE
:1012400000080400080400080400100600200780BD
:10125000C000000004000807FFF807FFF8040008BA
:101260000400080400080400180200100380700144
:10127000FFE0007F8000000004000807FFF807FF80
:10128000F8040808040808040808040808043E08CC
:1012900004000806001801006000000004000807B0
:1012A000FFF807FFF8040808040800040800040811
:1012B00000043E000600000600000180000000005F
:1012C000000000003F8001FFE0038070060018046A
:1012D00000080402080402080203F00783F0000279
:1012E0000000020004000807FFF807FFF8040808E0
:1012F00000080000080000080000080004080807B3
:10130000FFF807FFF80400080000000000000400D8
:101310000804000804000807FFF807FFF8040008A5
:1013200004000804000800000000000000000000A5
:101330000006000007000001040001040001040091
:101340000307FFFE07FFFC04000004000004000088
:1013500004000807FFF807FFF8040C080018000055
:101360003E0004C7800503C80600F80400380400E6
:101370001800000804000807FFF807FFF804000839
:101380000000080000080000080000080000080035
:10139000001800006000000004000807FFF8078044
:1013A0000807FC00007FC00003F80007C0007800B9
:1013B00007800807FFF807FFF80400080400080783
:1013C000FFF807000803C00000E000003800001E1E
:1013D000000007000001C00400F007FFF80400004F
:1013E000000000007F8001FFE00380700600180409
:1013F000000804000806001803003001FFE0007F29
:101400008000000004000807FFF807FFF804040844
:10141000040400040400040400040400060C000397
:10142000F80001F000000000000000007F8001FFD4
:10143000E00380700600880400880400C806003CB1
:1014400003003E01FFE6007F84000000040008075F
:10145000FFF807FFF8040808040800040C00040F54
:1014600000040BC00610F003F03801E0080000088B
:1014700000000001E0F803F0300630100418080402
:101480001808040C08040C080206180207F007816B
:10149000E0000000018000060000040000040000DD
:1014A00004000807FFF807FFF80400080400000420
:1014B000000006000001800004000007FFE007FFB5
:1014C000F0040018000008000008000008000008F0
:1014D00000000804001007FFE004000004000006FC
:1014E000000007E00007FE00041FE00001F8000014
:1014F000380001E0043E0007C000060000040000C0
:1015000004000007E00007FFC0041FF80007C00741
:10151000F80007FF80043FF80007C004F800070048
:101520000004000000000004000806001807C0784E
:1015300005F1C8003E00001F800463E80780F8063C
:1015400000180400080000000400000600000780E6
:101550000007E008047C08001FF80007F8001808DE
:1015600004E008070000060000040000000000017D
:1015700000080600380400F80403E8040F08047C9F
:101580000805F00807C00807001804006000000004
:101590000000000000000000000000000000003F0C
:1015A000FFFE200002200002200002200002200096
:1015B000020000000000000000000800000700001A
:1015C00000C0000038000006000001C0000030002C
:1015D000000E0000010000000000000000002000DC
:1015E000022000022000022000022000023FFFFE35
:1015F00000000000000000000000000000000000EB
:101600000000000000080000100000300000200072
:101610000030000010000008000000000000000082
:1016200000000100000100000100000100000100B5
:1016300000010000010000010000010000010000A5
:101640000100000100000000000000000020000078
:10165000200000100000100000000000000000004A
:1016600000000000000000000000000000F0001971
:10167000F8001B1800220800260800240800241087
:10168000003FF8001FF800000800001800000004E8
:10169000000007FFF80FFFF00018180010080020E6
:1016A00008002008003018001FF0000FC0000000E4
:1016B0000000000007C0001FF000183000200800E4
:1016C0002008002008003C08001C100000600000FA
:1016D000000000000000000007C0001FF0003818E4
:1016E00000200800200800200804101007FFF80F51
:1016F000FFF00000100000000000000000000007E4
:10170000C0001FF00012300022180022080022083A
:10171000003208001E10000E200000000000000033
:10172000200000200800200801FFF803FFF8062031
:10173000080420080420080720000300000000001F
:1017400000000000000E000E6E001FF30031B1001B
:1017500020B10020B1003191001F13002E1E002087
:101760000E00300000000004000807FFF80FFFF82B
:10177000001008002000002000002008003FF800B2
:101780001FF800000800000000000000000000201A
:1017900008002008002008063FF8063FF80000086F
:1017A0000000080000080000000000000000000029
:1017B00000000000030000030020010020010020C1
:1017C00003063FFE063FFC00000000000000000092
:1017D00000000004000807FFF80FFFF80001880070
:1017E0000300002FC00038F8002038002008000057
:1017F00008000000000000000000040008040008C9
:1018000004000807FFF80FFFF800000800000800B8
:101810000008000000000000002008003FF8003F22
:10182000F8001008002000003FF8003FF800100802
:10183000002000003FF8003FF80000080000000012
:101840002008003FF8003FF80010080010000020BA
:1018500000002008003FF8001FF80000080000000A
:101860000000000007C0000FF00018300030080032
:101870002008002008003008001830000FF0000792
:10188000C0000000000000002001003FFF003FFFFB
:101890000010110020090020080020080030380046
:1018A0001FF0000FC00000000000000007C0001F74
:1018B000F00038180020080020080020090010114E
:1018C000001FFF003FFF0000010000000020080093
:1018D0002008002008003FF8003FF800080800102A
:1018E0000800200800200000300000300000000048
:1018F000000000000000000C78001E1800330800F3
:1019000023080021080021880021980030F00038C9
:101910006000000000000000200000200000200007
:1019200000FFF003FFF80020080020080020080056
:101930000030000000000000000000002000003F18
:10194000F0007FF8000018000008000008002010D8
:10195000003FF8007FF000001000000000000000D1
:101960002000003000003C00003F800023F0000019
:1019700078000070002380003C0000300000200050
:10198000002000003C00003FE00023F80000E000E1
:101990002700003E00003FE00021F80001E0003E8B
:1019A0000000200000000000200800200800383857
:1019B000003E680027800003C8002CF8003838007B
:1019C0002018002008000000000000002000003067
:1019D00003003C01003F830023EC000070002380E3
:1019E000003C00002000002000000000000000007B
:1019F00000000038080020380020F80023E8002FFD
:101A000088003E0800380800201800007000000020
:101A100000000000000000000000000000000000C6
:101A200008000014001FF7FC300006200002000030
:101A300000000000000000000000000000000000A6
:101A4000000000000000FFFFFF0000000000000099
:101A50000000000000000000000000000000200066
:101A6000023000061FF7FC00140000080000000010
:101A7000000000000000000000000000000000184E
:101A80000000600000400000400000200000100046
:101A9000000800000400000400000C00001000001A
:101AA0002DE9F84F8A4600240FF228210D5D95425A
:101AB00002BF0D196D789D4202D0A41C0A2CF5DBE3
:101AC000DDF828808DF8000004EBD474E4050026CE
:101AD0000025220E18200FF2302142430E238818D1
:101AE00003FB06539DF80090C75C4FF0000BA94420
:101AF0000AEBC601F807594448BF424603D4B8F17F
:101B000001029241D20FC9B25FFA89F0FEF76FFB72
:101B10007F080BF1010BBBF1080FE9DB6D1C0E2DEB
:101B2000D7DB761C012ED3DDBDE8F18FF8B5044676
:101B30000D4616461F4607E016F8012B0C232946D2
:101B4000E0B2FEF773FBA41D327862B1A2F120006F
:101B50005F280097F0D373782946E0B2FFF7A0FF23
:101B60000E34B61CF0E7F1BD10B5044608465038F7
:101B700000F00CF82009002140F0100000F020F8DF
:101B800004F00F00BDE81040002119E00021C0B2B0
:101B900016E038B50025A5F15000FFF7F7FFFEF776
:101BA00022FB0021102000F00BF858244021FEF702
:101BB0001BFB641EFAD16D1CE8B21028EBDB31BDB3
:101BC000E0B58DF805008DF804104FF6FF70009019
:101BD000022301AA7821024800F0ACFB07BD0000F7
:101BE000A018002080B54FF4487000F089FD002156
:101BF000AE20FFF7E5FF00210020FFF7E1FF002105
:101C00001020FFF7DDFF0021B020FFF7D9FF0021F2
:101C1000D520FFF7D5FF0021B120FFF7D1FF00212C
:101C20002020FFF7CDFF00218120FFF7C9FF002111
:101C3000FF20FFF7C5FF0021A020FFF7C1FF002113
:101C4000A420FFF7BDFF0021A620FFF7B9FF002168
:101C5000A820FFF7B5FF00215720FFF7B1FF0021B3
:101C6000DC20FFF7ADFF00210020FFF7A9FF0021D6
:101C7000D320FFF7A5FF00216C20FFF7A1FF002173
:101C8000AD20FFF79DFF00218020FFF799FF002185
:101C9000C020FFF795FF0021D920FFF791FF002119
:101CA0002220FFF78DFF0021DB20FFF789FF0021B5
:101CB0003F20FFF785FF0021AF20FFF781FF0021C4
:101CC000AF20FFF77DFFFFF764FFBDE80440002170
:101CD000002049E7BFB5C8CECEF1A3BAD3C5CFC85F
:101CE000BCB6CAA3D3E0D5BBD7B4CCACD0F2BAC58E
:101CF00000000000000000000000000000000000E4
:101D000000000000000000000000FC44545455FE98
:101D10005454F4444400201807201509213F0509B4
:101D2000152220004020F80780848484FC8282826F
:101D3000800000003F00002020203F2020200000E5
:101D4000404844262B9212122A264240400000218D
:101D500011090503010121211F000000000000C03E
:101D6000C00000000000000000000000000C0C009B
:101D700000000000000000004020F807001010FFE5
:101D800010F01214100000003F0020100C03001F80
:101D9000202038008090888E8888FF8888888880F6
:101DA000800020201008070000001F20202038009D
:101DB000985433180002FE0262524EC00000111106
:101DC00009092018072214081621200028AAFA0A57
:101DD000FE09F949A800F800FF00110805023F02BA
:101DE0000409110023203F00202010282422E12292
:101DF0002428102020000011090521213F010105A0
:101E00000911000008C8FF4888009090FF88494ADF
:101E1000400001003F00000010100B040A113C00BC
:101E2000041880FF001010907F901214100002011F
:101E3000003F20100C0300030C1020008484444455
:101E400024548F142444448484002018001C20202F
:101E5000222C2030000418000000FC0414145596B5
:101E600094543414040020180701010121213F017A
:101E70000105030040404F49C949494949494F407C
:101E80004000000002030202020222221E000000A3
:101E90000000000000000000000000000000000042
:101EA0000000000000000000000000000000000032
:101EB0000000000000000000000000000000000022
:101EC0000000000000000000000000000000000012
:1021B000000000000000000038B5040001D101203B
:1021C00032BD2068DFF8B812DFF8B85288421CBF71
:1021D000DFF8B42290420BD0DFF8B01288421CBF67
:1021E000DFF8AC22904203D04FF4F77100F097F87B
:1021F000A068B0F5806F03D340F2EF1100F08FF8C4
:10220000E068012818BF022803D04FF4F87100F0ED
:1022100086F82069002818BFB0F5004F03D040F2BF
:10222000F11100F07CF86069B0F5807F03D34FF4C2
:10223000F97100F074F8A069002818BF01280FD0C8
:10224000022818BF03280BD0042818BF052807D080
:10225000062818BF072803D040F2F31100F05FF8FA
:10226000E069002818BFB0F5002F03D04FF4FA71D1
:1022700000F055F8206A002818BFB0F5003F03D0E1
:1022800040F2F51100F04BF804F14005687820B9F0
:1022900000212970204600F0AFFA00F043F8606892
:1022A000216820F0706008612068816821F4004195
:1022B0008160E06821680128A0680CBF40F40040FC
:1022C00040F404408860E068022803D120684FF49D
:1022D000006141602068416841F0007141F40041B3
:1022E00041602068C16821F40041C16060692169D2
:1022F000A2690143206841EA0221C160206AE169C4
:102300002268014311602068016841F00101016009
:1023100000206860202169702063A87032BD2846C3
:1023200000F054BB24206870206801684908490007
:10233000016070472DE9F84300F054F839D1217855
:10234000012936D00120207000F05EFB00F07FF8FC
:10235000002835D1212000F04EF8DFF83801B1F522
:10236000807F28BF358506D2728D328500F035F822
:1023700003E03585002000F02BF800F05CF800F059
:1023800021F819D000F0B9F8002819D100F043F86D
:10239000F5D089B20029F2D100F051F880B900F0EF
:1023A00036F8E6D2728D32850020DFE700F059F86A
:1023B00000E00220BDE8F28300F0C6F80028F5D066
:1023C0000120F7E7708D00284A46394630467047AD
:1023D00000904FF08073FF22704700904FF0007321
:1023E000D2B27047064606F140048846607820283D
:1023F00015461F46704760701021A1700020606074
:10240000756277857063FF25089F718D7047708DA9
:10241000B0F5807F7047706A326801789162706AA7
:10242000411C7162708D411E7185308D411E318558
:10243000708D002870474146304600F0DAB8CDF87C
:1024400000903B4600228021304600F035B881469E
:10245000CDF80090192301224FF40041304600F0DE
:102460002BB831682020C8613168DFF82C004A6839
:1024700002404A60202161700020A07020707047E7
:1024800000540040A426000800580040005C0040B2
:10249000008400400020008000E800FE00688169A0
:1024A0008A0744BF002181628169CA0703D4816918
:1024B00041F00101816170472DE9F041069F054619
:1024C0000E4690461C46286881693140B1420CBFD7
:1024D0000120002040450DD114F1010FF3D000F090
:1024E00093FAC01B844201D3002CECD100F020F8F9
:1024F000012000E00020BDE8F08170B505460C46E3
:10250000164628688169880710D400F035F858B954
:1025100014F1010FF5D000F077FA801B844201D34B
:10252000002CEED100F004F8012070BD002070BD39
:1025300005F140002022416841F0200141604270D5
:10254000002181700170704770B505460C46164633
:102550002868816988060DD400F00EF840B900F0B3
:1025600053FA801B844201D3002CF1D1FFF7E0FF26
:10257000012070BD002070BD324621462846FFE78D
:1025800070B505460C4628688169C806164618D5F8
:10259000286881698A0616D414F1010FF8D000F07A
:1025A00033FA801B844201D3002CF1D105F14000A5
:1025B000416841F0200141602022FFF7C0FF012067
:1025C00070BD002070BD1021C16120202A68D0613B
:1025D0002846FFF763FF00F007F805F140004A6066
:1025E000416841F00401E6E7296826484A6802404C
:1025F00070472DE9F84307460E4638682249904651
:1026000088421CBF214A90421C460FF298090AD00A
:102610001F4988421CBF1F4A904204D041F6AA01BC
:10262000484600F0D3F9B4F1807F18BFB4F1007FC1
:1026300005D024B141F6AB01484600F0C7F9089D2A
:10264000154885421CBF15498D4209D00C4885426A
:1026500018BF002D04D041F6AC01484600F0B6F991
:1026600038680F4A416842EA55529143C6F3090659
:102670000E4346EA084626432E434660BDE8F183F2
:102680000020008000E800FE005400400058004098
:10269000005C004000840040004000800024008076
:1026A000FF63FF03463A5C53797374656D5C446F56
:1026B00063756D656E74735C437562654D585C4CF3
:1026C000343936546573745C447269766572735C30
:1026D00053544D33324C3478785F48414C5F4472E8
:1026E000697665725C5372635C73746D33326C34FB
:1026F00078785F68616C5F6932632E630000000068
:1027000038B5044600F080F914F1010F054618BFF2
:10271000641C00F079F9401BA042FAD331BDF0B43B
:102720000246106895681318506803EB5004C00700
:102730001DD54D441BE013F8017B05F8017B491EB4
:10274000F9D1A0B1B60813F8011B06F00306032E59
:1027500008BF13F8016B01EB06214942801C294494
:1027600005D011F8016B05F8016B401EF9D1A342A9
:102770000ED013F8016B16F0030104BF13F8011B10
:10278000C91C30090F28DAD113F8010B0F30D6E736
:10279000F0BC02F10C00704738B5284C2848294994
:1027A0002BA5206000220120E0606160A260226110
:1027B0006261A261E26122622046FFF7FDFC18B16E
:1027C0004C21284600F000F90021204600F022F9B3
:1027D00018B15321284600F0F7F80021204600F0F8
:1027E00052F918B15A21284600F0EEF8BDE83240FF
:1027F0004FF4001000F096B900681149884200D0EB
:10280000704700B585B00322009212210191012288
:102810000292032103910422049269460A4800F0BF
:10282000E7F90A48016841F480010160006800F49A
:1028300080000090009805B000BD0000A0180020A6
:10284000005800400D0210000014004858100240CB
:10285000463A5C53797374656D5C446F63756D655E
:102860006E74735C437562654D585C4C34393654F4
:102870006573745C436F72655C5372635C69326349
:102880002E63000080B500F0C1FB00F018F800F0E6
:10289000DBFB00F0B1FC00F059FD00F0C7FCFFF7D6
:1028A0007BFF00F0D9FDFFF79DF900F04EFE00F030
:1028B00067FE00F079FF3F4800F0FDFFFEE700B53E
:1028C000B9B001F0DBFB3C48016821F01801016060
:1028D00014220121059207910B91602200210C9195
:1028E0000D92022101220F911092119213911491D5
:1028F000472206211292159105A801F0C7FB00B1ED
:10290000FEE7032101910F204FF480610090002227
:102910000391029204920221684601F0A4FE00B1E4
:10292000FEE70022269229922B9242F2A401012274
:102930001691179218924FF08061182232911992D5
:1029400002214FF480121A911B911C911D9216A81E
:1029500002F08AF800B1FEE74FF4007002F03AFD91
:1029600000B1FEE701F0B7FF4FF47A71B0FBF1F070
:1029700002F025FE042002F03EFE02F05BFB002286
:102980000F214FF0FF3002F0D7FD39B000BD0068D5
:102990000A49884200D0704780B502F079FE0848A5
:1029A0000168491C01608021BDE80440054800F031
:1029B000A9BA00002C19002090100240002C014000
:1029C0008419002000040048FEE700000A46014682
:1029D00001A002F065BE000057726F6E6720706143
:1029E00072616D65746572732076616C75653A20ED
:1029F00066696C65202573206F6E206C696E65209A
:102A000025640D0A0000000001480068704700BFFF
:102A10008019002070B505460C46286800F05CF867
:102A20001CBF554A904208D000F06DF81CBF534AB5
:102A3000904202D0742100F054F8002C18BFB4F575
:102A4000805F02D0752100F04CF805F1400041781C
:102A5000202916D10278012A13D0012101702422E5
:102A6000427029680B685B085B000B6029680A6884
:102A700022F480520A6029680B681C430C602968A4
:102A800032E0022070BD70B504460D46206800F0AB
:102A900023F81CBF384A904208D000F034F81CBF1D
:102AA000364A904202D0A22100F01BF8102D02D32A
:102AB000A32100F016F800F021F80BD10278012ACA
:102AC00008D000F023F822F4706242EA05220A607E
:102AD000216809E0022070BDDFF8A4102DA688420D
:102AE00070473046FFF772BF0A6842F001020A6081
:102AF0002021417000220270002070BD04F14000CE
:102B00004178202970471F49884270470121017090
:102B10002422427021680B685B085B000B6021680F
:102B20000A6870471CB500F012F818BF14F47F0F44
:102B300003D14FF4967100F007F800F00EF80C4343
:102B4000046013BD0000000012A0FFF73FBF044661
:102B50000D4800EA0401814270470C48016841F0C9
:102B600001010160006800F0010000900098084831
:102B700001687047000000000058004000840040D9
:102B800000540040005C00400000AAAA601002400F
:102B900004000140463A5C53797374656D5C446F80
:102BA00063756D656E74735C437562654D585C4CFE
:102BB000343936546573745C447269766572735C3B
:102BC00053544D33324C3478785F48414C5F4472F3
:102BD000697665725C5372635C73746D33326C3406
:102BE00078785F68616C5F6932635F65782E630037
:102BF0002DE9FE4F06460025B6F1904F1CBFDFF8C9
:102C00002C0386420F461DD0DFF824138E421CBFD2
:102C1000DFF82003864215D0DFF81C138E421CBF5C
:102C2000DFF8180386420DD0DFF814138E421FBF61
:102C3000DFF810038642DFF81023964202D0C3214A
:102C400000F042F93868010402D0000C000402D000
:102C5000C42100F039F978680FF21838002818BF3D
:102C6000012823D0112818BF02281FD012281CBF0A
:102C7000DFF8D812884219D0DFF8D42290421CBF66
:102C8000DFF8D012884211D0DFF8CC2290421CBF6E
:102C9000DFF8C812884209D0DFF8C42290421CBF76
:102CA00003280B2802D0C52100F00AF9B86890B3B8
:102CB000012818BF02282ED0C62100F001F92AE011
:102CC000DFF880329E4214BF08230723934043EA73
:102CD0000A0341F82030E143DFF8880202687B688C
:102CE0000A40DB0348BF2243026042687B680A4017
:102CF0009B0348BF2243426082687B680A40DB0234
:102D000048BF22438260C2680A4079688B0248BF8C
:102D10002243C2606D1C3C6834FA05F000F0CE809E
:102D2000012000FA05F919EA0404F3D0A8008DF88F
:102D300001004FF00F0A7868022818BF12283AD114
:102D4000B6F1904F1CBFDFF8E40186421DD0DFF8DA
:102D5000E0118E421CBFDFF8DC01864215D0DFF89F
:102D6000D8118E421CBFDFF8D40186420DD0DFF8A7
:102D7000D0118E421FBFDFF8CC018642DFF8C811A8
:102D80008E4202D0D52100F09BF83869102802D37A
:102D9000D62100F095F8E80806EB8000016A9DF85E
:102DA000012002F01C020AFA02F399433B6903FA7C
:102DB00002F211430162690030688DF800100322AD
:102DC0009DF8001002FA01F19DF800206FEA010B56
:102DD000397901F003010BEA0000914008433060AB
:102DE0007868012818BF022803D0112818BF1228BC
:102DF0001DD1F868002818BF012806D0022818BF86
:102E0000032802D0EA2100F05BF8B068F9689DF869
:102E100000200BEA000091400843B060706820EA8F
:102E200009017868C0F30010A84008437060F0689A
:102E30009DF800100BEA0002B86888401043F0606B
:102E40007868C1007FF566AF47484849026842F09C
:102E500001020260006800F0010001900198A808DA
:102E600051F820309DF8012002F00C020AFA02FA13
:102E700023EA0A0AB6F1904F08BF00231DD02B4B5E
:102E80009E4208BF012318D0294B9E4208BF02234F
:102E900013D0284B9E4208BF03230ED0264B9E42E0
:102EA00008BF042309D0254B9E4208BF052304D048
:102EB000234B9E427FF404AF062307E7BDE8F78F5C
:102EC0004046FFF783BD00002AA0FFF77FBD00004A
:102ED000F8B50D4616462A004FEA000425A704D18E
:102EE0004FF4E1713846FFF771FD300008D0012E34
:102EF00004D040F2C3113846FFF768FDA561F1BD6B
:102F0000A562F1BD38B50D00044603D14FF4EC7154
:102F1000FFF7DAFF60694540656131BD144A136807
:102F200003421CBF106000F053B870470004004813
:102F300000080048000C0048001000480014004839
:102F400000180048001C0048002000480000111034
:102F500000002110000031100000121000002210AB
:102F600000003210000401406010024008000140DF
:102F700014040140463A5C53797374656D5C446F88
:102F800063756D656E74735C437562654D585C4C1A
:102F9000343936546573745C447269766572735C57
:102FA00053544D33324C3478785F48414C5F44720F
:102FB000697665725C5372635C73746D33326C3422
:102FC00078785F68616C5F6770696F2E63000000DE
:102FD000704730B4002513E050F8042BD30744BFEA
:102FE000A9F101039A18091F042942F8045BFAD2D7
:102FF00013468C0744BF15809B1CC90748BF1D7032
:1030000050F8041B0029E7D130BC7047032010B5ED
:1030100002F075FA002002F057FB0024002814BFCC
:10302000012402F08DFB204610BDB1F5807F02D354
:103030004FF0FF3070470170012070470078401E4C
:103040008041C043C00F7047F8B5544C544D554EA5
:10305000554F86B0206840F004002060216801F0E0
:10306000040105910598216841F020012160226842
:1030700002F0200200F09EF841F0800121602268F9
:1030800002F0800200F096F841F001012160226810
:1030900002F0010200F08EF841F002012160226886
:1030A00002F0020200F086F841F04001216022683F
:1030B00002F040020592059802F0CBF9216841F038
:1030C0001001216001222068384C00F010000590AA
:1030D000012105984FF09040FFF7FAFE01220121EF
:1030E0002046FFF7F5FE00224FF481412046FFF70E
:1030F000EFFE002240212846FFF7EAFE0022802151
:103100003046FFF7E5FE012201213846FFF7E0FED9
:103110004FF4005026490090019100220292694626
:103120003046FFF765FD0121009101914FF090407D
:103130000021029103916946FFF75AFD00F03EF825
:103140002046FFF755FD4FF4814100F040F820463E
:10315000FFF74EFD202000210090019102912846AA
:103160006946FFF745FD402100F031F82846FFF79A
:103170003FFD802100F02BF83046FFF739FD00F0CD
:103180001DF83846FFF734FD00220521282002F003
:10319000D3F9282002F001FA07B0F0BD4C1002402C
:1031A00000180048000800480010004800040048CB
:1031B00000001110059205982168704701210091C7
:1031C0000191032200210291039269467047009108
:1031D0000122002102910391019269467047026821
:1031E000531C03601170704742490968CA6913068D
:1031F000FCD5C2B20A85704780B53F483F49404A76
:10320000016042600021C1604FF0805300220C2118
:1032100083600261416182610262426202F0D6FA19
:1032200018B1BDE8044054211AE001BD80B5314811
:10323000344901604FF4165200230C214260836030
:10324000C360036141618361C3610362436202F051
:10325000BDFA18B1BDE80440692101E001BD0000DC
:103260002CA0FFF7B1BB80B586B000F03DF812D1BD
:10327000486840F0010048600222486800F0010000
:1032800005904FF4C07105981F4800F022F80821FE
:1032900000F025F81BE01B4A904218D1086840F462
:1032A000802008600222096801F480210591302104
:1032B0000598164800F00DF8072100F010F80022DC
:1032C0000621272002F038F9272002F066F907B01E
:1032D00000BD0091019200210291032270470491E8
:1032E00003926946FFF784BC0068044A084990428B
:1032F00070470000D81700206017002000800040B1
:10330000243303000048004000180048000800482B
:1033100058100240463A5C53797374656D5C446F93
:1033200063756D656E74735C437562654D585C4C76
:10333000343936546573745C436F72655C537263E1
:103340005C75736172742E630000000080B52F48B5
:103350004FF0A0410160062200214260416100223D
:103360000121C1610262022300210122C360836145
:10337000416282620163C26202F0A8FE28B1BDE828
:1033800004404F2126A0FFF71FBB01BD0068B0F12C
:10339000A04F00D0704710B586B04FF4E8510191AE
:1033A000022202920021039103220A230492059330
:1033B00000F026F84FF4007101910022029203926E
:1033C00000F01EF8124C206840F480502060216804
:1033D00001F4805100910098E168C8000CD4E168C4
:1033E00041F08051E16000F015F802F02FF8E0683C
:1033F00020F08050E06001E002F028F806B010BD37
:1034000001A94FF09040FFF7F3BB00002812002005
:103410004C100240E06800F0805000900098704727
:10342000463A5C53797374656D5C446F63756D6582
:103430006E74735C437562654D585C4C3439365418
:103440006573745C436F72655C5372635C75736221
:103450005F6F74672E6300004FF0804030B5244CDE
:1034600025A520604BF6E40101200022E0606160A8
:10347000A2602261A26187B0204600F0C3F918B1B2
:1034800049212846FFF7A0FA4FF48050039003A982
:10349000204600F05BFB18B14F212846FFF794FA55
:1034A0000021009102912046694602F0B5FE18B154
:1034B00056212846FFF788FA07B030BD0068B0F102
:1034C000804F00D0704780B50A48016841F0010183
:1034D00001600022006800F00100009005210098C2
:1034E0001C2002F029F8BDE802401C2002F055B86B
:1034F0002C19002058100240463A5C5379737465C9
:103500006D5C446F63756D656E74735C4375626565
:103510004D585C4C343936546573745C436F726536
:103520005C5372635C74696D2E6300001CB58DF88A
:1035300004108DF805204FF6FF7401460094022315
:1035400001AA0E48FEF7F6FE13BD80B500226B21DE
:1035500000F012F80722192100F00EF818221B21A2
:1035600000F00AF801221C2100F006F8BDE808402E
:1035700006221A21D020D9E7D020D7E7A0180020B2
:1035800010B594B00DF13C0070A1544C142202F01F
:1035900037FF00210FA800F00CF9E06014220AA800
:1035A0006FA102F02DFF05A872A1142202F028FFDE
:1035B0004FEA0D0074A1142202F022FF00210AA894
:1035C00000F0F7F82060002105A800F0F2F8606034
:1035D0000021684600F0EDF8A06014B010BD0000B6
:1035E0002DE9F84D9DB000254CA40FF2281A0FF2DA
:1035F000141B0FF2001838A70BE0761CF6B221E07E
:10360000504602F04DF8684602F04AF8204602F0B3
:1036100047F80A2000F0E4F804A803F08BFA4046CB
:1036200002F03EF804A802F03BF8384602F038F801
:103630000A2000F0D5F8584602F032F804A803F04A
:10364000D4FA002604A803F099FB8642D8DA002DAC
:10365000D3D104A8805D202818BF092811BF0DF818
:10366000060000200DF806000125C6E780B5FA2007
:1036700000F0B6F84FF480411948FFF743FCF6E735
:10368000F8B584B00FF2B8042AA5144E25A7282057
:1036900000F0A6F868463946102202F0B1FE326901
:1036A000501C30612946684603F084FB01236A46BA
:1036B00000210020FEF73AFA706802F0EAFF0246A5
:1036C0002146684603F076FB01236A460F2100205D
:1036D000FEF72CFADBE700000D0A00006C19002051
:1036E0000004004880B5282000F07AF8FCF75EFD61
:1036F000F9E70000550909550955095509550D0AFD
:10370000000000000D0A5555090955550909555580
:103710000D0A00000D0ABFAACABC0000BDE1CAF82C
:103720000D0A000000000000000000000000000082
:10373000000000004D79436F756E743A25640000F7
:103740005072696F726974793A256400C4920008F6
:10375000E1350008000000000000000080000000CB
:10376000D09200086D360008000000000000000044
:1037700020000000DC9200088136000803000000F1
:103780000000000080000000E8920008E536000814
:103790000000000000000000400000000146002082
:1037A000842918BFC81C704780B502F083FF002031
:1037B00002BD3EB504460D46B4F90800FFF7EEFF22
:1037C00002A9019100902B4622692168606892B29B
:1037D00002F05AFE012801D000203EBD02983EBDF5
:1037E00080B500B9012002F00FFF002002BD80B5B6
:1037F00003F072F9012803D0BDE8014003F098BB43
:1038000001BD000038B5040001D1012032BD00F037
:10381000B8F818BFB0F1804F22D000F0D8F81CBF24
:10382000DFF8382190421BD000F0CEF81CBFDFF843
:103830003021904214D000F087F81CBFDFF824211B
:1038400090420DD000F0B9F81FBFDFF81C21904264
:10385000DFF83C31984203D040F20F1100F08EF8AF
:10386000A068002818BF102808D020281CBF4028B6
:10387000602803D04FF4887100F080F82069002898
:103880001CBFB0F5807FB0F5007F03D040F211116E
:1038900000F074F8A069002818BF802803D04FF406
:1038A000897100F06BF800F065F818B900F05EF867
:1038B000FFF704FE3EE010B500F036F818BFB0F197
:1038C000804F22D000F083F81CBFDFF89020904298
:1038D0001BD000F079F81CBFDFF88420904214D090
:1038E00000F032F81CBFDFF87C2090420DD000F0D1
:1038F00064F81FBFDFF870209042DFF898309842DC
:1039000003D040F2B11100F04BF82068C16841F0DB
:103910000101C16000F01CF81EBF82681140B1F5C2
:10392000803F00F043F810BD0446DFF86C102068BB
:103930008842704702206870211D206800F0C6FA96
:1039400001206870002032BDDFF8501088427047B7
:103950008268DFF854100A40062A704700080040C9
:103960000010004000340140004401400021297053
:103970002046704704F13C05687870472846FFF7F9
:1039800025B82068DFF81010DFF8385088427047FB
:103990000048014000480140002C01400014004054
:1039A000DFF82000FFF712B80700010003D001681C
:1039B00041F00101016000207047DFF820108842CB
:1039C0007047000020400008034988427047DFF834
:1039D0001010884270470000000C00400040014079
:1039E0000004004010B50446206801698A0715D517
:1039F000C1688A0712D56FF00201016101222277A6
:103A0000806910F0030F204602D003F0CFFA03E0E4
:103A100003F0CDFA00F094F80020207720680169C7
:103A20004A0715D5C1684A0712D56FF00401016134
:103A300002222277806910F4407F204602D003F0F2
:103A4000B5FA03E003F0B3FA00F07AF8002020772B
:103A5000206801690A0715D5C1680A0712D56FF0F9
:103A60000801016104222277C06910F0030F20468B
:103A700002D003F09BFA03E003F099FA00F060F83B
:103A80000020207720680169CA0615D5C168CA06DA
:103A900012D56FF01001016108222277C06910F47D
:103AA000407F204602D003F081FA03E003F07FFA62
:103AB00000F046F80020207720680169CA0708D581
:103AC000C168CA0705D56FF0010101612046FEF704
:103AD0005EFF206801690A0608D5C1680A0605D597
:103AE0006FF080010161204603F062FA20680169ED
:103AF000CA0508D5C1680A0605D56FF48071016151
:103B0000204603F056FA206801694A0608D5C168C4
:103B10004A0605D56FF040010161204603F04AFADC
:103B2000206801698A060AD5C1688A0607D56FF040
:103B3000200101612046BDE8104003F03CBA10BDF1
:103B4000204603F039BA4046FEF740BF2DE9F04168
:103B5000054605F13C063078012808BF022000F038
:103B600095810C4601203070022171702068DFF8C9
:103B70001084B0F5805F18BFB0F5005F13D0002847
:103B800018BF10280FD0202818BF30280BD040288D
:103B900018BF502807D0602818BF702803D041F202
:103BA0009711FFF7D0FF2968DFF8D8038A68DFF89C
:103BB0000433DFF8D4C3DFF8C0E302408A6027682B
:103BC000DFF8C803DFF8F012DFF8C423002F18BFB6
:103BD000102F02D0202F18BF302F00F03E81402F31
:103BE00000F01081502F00F0B480602F00F0DC80D6
:103BF000702F2ED0B7F5805F03D0B7F5005F6AD085
:103C000042E12C68744518BFB4F1804F1BD0644565
:103C100018BF9C4217D094421CBFDFF86023944227
:103C200011D0DFF870339C4218BF8C420BD0844215
:103C30001FBFDFF8880284429D498C4203D041F2C5
:103C4000A311FFF780FF2968DFF84C038A68024060
:103C50003FE02F68774518BFB7F1804F0CD067451C
:103C600018BF9F4208D097421CBF8F42874203D0A3
:103C700041F2AC11FFF767FFA068002818BFB0F54C
:103C8000805F09D0B0F5005F18BFB0F5405F03D08A
:103C900041F2AF11FFF757FF00F0FFF818BF0028FF
:103CA00007D0022818BF0A2803D041F2B011FFF74D
:103CB0004AFFE068102803D341F2B111FFF743FF38
:103CC00000F0EFF82968DFF8D4028A68024042F079
:103CD00077028A60D8E02868704518BFB0F1804F3D
:103CE0000BD0604518BF984207D0904218BF884259
:103CF00003D041F2C611FFF726FFA068002818BFC5
:103D0000B0F5805F09D0B0F5005F18BFB0F5405F37
:103D100003D041F2C911FFF716FF00F0BEF818BF3B
:103D2000002807D0022818BF0A2803D041F2CA1180
:103D3000FFF709FFE068102803D341F2CB11FFF72A
:103D400002FF00F0AEF82868816841F4804181608C
:103D50009AE02F68774518BFB7F1804F0CD06745C0
:103D600018BF9F4208D097421CBF8F42874203D0A2
:103D700041F2DA11FFF7E7FE00F08FF818BF0028D4
:103D800007D0022818BF0A2803D041F2DD11FFF73F
:103D9000DAFEE068102803D341F2DE11FFF7D3FE0C
:103DA00000F076F850216CE02F68774518BFB7F126
:103DB000804F0CD0674518BF9F4208D097421CBF68
:103DC0008F42874203D041F2EA11FFF7BCFE00F0B8
:103DD00064F818BF002807D0022818BF0A2803D0AB
:103DE00041F2ED11FFF7AFFEE068102803D341F276
:103DF000EE11FFF7A8FEE2686168286800F0E1F8BC
:103E000060213EE02F68774518BFB7F1804F0CD096
:103E1000674518BF9F4208D097421CBF8F42874218
:103E200003D041F2FA11FFF78EFE00F036F818BF0A
:103E3000002807D0022818BF0A2803D041F2FD113C
:103E4000FFF781FEE068102803D341F2FE11FFF76F
:103E50007AFE00F01DF8402113E02F68774518BF67
:103E6000B7F1804F0CD0674518BF9F4208D09742EA
:103E70001CBF8F42874203D041F20D21FFF763FE42
:103E80002168286800F0AFF800F01AF8BDE8F0816A
:103E9000E2686168286800F083B86068B0F5004F98
:103EA0007047E3686268A168286800F0A4B8000061
:103EB0000048014000080040003401400044014037
:103EC0000120707000213170002070472DE9F0430F
:103ED000294FD0F800C0DFF84031DFF83841DFF873
:103EE000AC50DFF82861DFF8A8E0DFF82481DFF8C4
:103EF0002C91B84218BFB0F1804F07D0484518BF89
:103F0000404503D0704518BFB0420ED14A68B84250
:103F10002CF0700C18BFB0F1804F42EA0C0C0CD0A2
:103F200048451CBF4045704507D0B04218BFA84265
:103F300003D0A04218BF984204D1CA682CF4407C38
:103F400042EA0C0C4A692CF0800C42EA0C02026036
:103F5000B8428A68C26218BFB0420A68826204D05E
:103F6000A8421CBFA042984201D109690163012205
:103F70004261BDE8F0830000002C014000100040C9
:103F8000204000088800FEFF00040040004001407F
:103F9000000C004000140040F8FFFEFF88FFFEFF09
:103FA00010B5036A046A64086400046223F00A031B
:103FB000846924F0F00444EA021484611943016224
:103FC00010BD10B5036A23F0100303628369046A0D
:103FD00023F4704343EA023324F0A004836144EAEB
:103FE0000114046210BD826822F07002114341F096
:103FF00007018160704710B5846824F47F44214331
:10400000114341EA0321816010BD000000340140EA
:104010000008004000440140004801400004004006
:10402000463A5C53797374656D5C446F63756D6576
:104030006E74735C437562654D585C4C343936540C
:104040006573745C447269766572735C53544D3366
:10405000324C3478785F48414C5F447269766572BF
:104060005C5372635C73746D33326C3478785F6860
:10407000616C5F74696D2E63000000000248016886
:1040800041F4807101607047007000402DE9F84FE5
:10409000040053D020680FF6741830B110F03F0FB1
:1040A00003D140F2AD1100F0BAFBDFF8B478DFF8CD
:1040B0003059B868FE6800F00C092078C10606F097
:1040C000030640F17481A069002818BF012803D0BD
:1040D0004FF4DB7100F0A3FBE069B0F5807F03D300
:1040E00040F2B71100F09BFB206A002818BF10288F
:1040F00017D0202818BF302813D0402818BF5028C8
:104100000FD0602818BF70280BD0802818BF9028C7
:1041100007D0A02818BFB02803D04FF4DC7100F0FE
:104120007EFBB9F1000F04D0B9F10C0F08BF012ECE
:104130002AD13868810703D5A069002800F054818E
:10414000396808074EBF396869680909206A01F0B3
:10415000F001814206D200F005FC002808D100F0F1
:1041600070FA07E000F06DFA206A00F0FBFB00280F
:1041700040F03A8100F064FB00F054FB01F0A4FA37
:10418000010000F014815AE2A06990B1396841F051
:1041900001013960FEF738FC82463868810700F17A
:1041A0000481FEF731FCA0EB0A000328F5D30320BD
:1041B00045E23868400840003860FEF725FC82463A
:1041C0003868810740F1F380FEF71EFCA0EB0A007F
:1041D0000328F5D3EBE76068B0F5803F04D1386879
:1041E00040F48030386011E0B0F5A02F386806D177
:1041F00040F480203860396841F4803105E020F4D3
:1042000080303860396821F480213960606868B195
:10421000FEF7FAFB82463868810300F1E780FEF77B
:10422000F3FBA0EB0A006528F5D3C0E7FEF7ECFB33
:1042300082463868810340F1D980FEF7E5FBA0EBA8
:104240000A006528F5D3B2E7FEF7DEFB801B0328E2
:10425000C0F00D81ABE7E06880B1396841F480714E
:104260003960FEF7D1FB06463868410500F1E18070
:10427000FEF7CAFB801B0328F6D398E7386820F4C2
:1042800080703860FEF7C0FB06463868410540F193
:10429000D780FEF7B9FB801B0328F6D387E7686851
:1042A000400840006860FEF7AFFB0646686881077B
:1042B00040F1E180FEF7A8FB801B0328F6D376E7E8
:1042C0000528286806D140F004002860296841F0DC
:1042D000010105E0400840002860296821F0040140
:1042E0002960A06841F2893A68B1FEF78DFB8346E8
:1042F0002868810700F1FD80FEF786FBA0EB0B002C
:104300005045F5D353E7FEF77FFB834628688107C6
:1043100040F1EF80FEF778FBA0EB0B005045F5D3A2
:1043200045E7FEF771FB801B0328C0F0FE803EE7E7
:10433000A86840084000A860FEF766FB0646A8682B
:10434000810740F1F680FEF75FFB801B0328F6D360
:104350002DE7FEF759FB401B0328C0F0468126E7F6
:10436000FEF752FB001B0328C0F064811FE738688A
:1043700020F080703860396811F0205F03D1F86850
:1043800080088000F860F968DFF858060140F9609D
:10439000FEF73AFB04463868810140F14F81FEF791
:1043A00033FB001B0328F6D301E700F04AF920781D
:1043B000C1071BD5606800281CBFB0F5803FB0F571
:1043C000A02F03D04FF4087100F029FAB9F1080FBB
:1043D00005D0B9F10C0F08BF032E7FF4FCAE38688E
:1043E000810303D5606808B9012028E1207881079E
:1043F00026D5E068002818BFB0F5807F03D040F2D2
:10440000532100F00CFA2069802803D34FF4157172
:1044100000F005FAB9F1040F05D0B9F10C0F08BF8F
:10442000022E7FF418AF3868410502D5E0680028F5
:10443000DAD07868216920F0FE4040EA01607860B7
:104440002078010717D56069002807D0012807D018
:104450004FF4257100F0E3F9606900283FF41FAFC5
:10446000686840F001006860FEF7CEFA06466868AA
:1044700081077FF5E9AE207841073FD5A068002687
:1044800000281CBF0128052803D040F2E72100F0D6
:10449000C6F9B86DC10009D4B86D40F08050B86558
:1044A0000126B86D00F0805000900098DFF838A524
:1044B000DAF80000C10513D4DAF8000040F4807087
:1044C000CAF80000FEF7A0FA8346DAF80000C1053A
:1044D00006D4FEF799FAA0EB0B000328F5D366E6A5
:1044E000A06801287FF4ECAE286840F00100286045
:1044F000F7E61EB1B86D20F08050B86520788106CF
:1045000017D5606A002807D0012807D04FF45371EF
:1045100000F085F9606A00283FF40AAFA86840F00F
:104520000100A860FEF770FA0646A86881077FF5CB
:10453000F8AEA06A002809D0012818BF022806D0CA
:1045400040F2753100F06BF9A06A002876D0B9F11D
:104550000C0F3FF449AFA06A02287FF408AFE06A6D
:10456000002818BF012807D0022818BF032803D04D
:1045700040F27F3100F053F9206B08B1092803D3D2
:104580004FF4607100F04BF9606B08384F2803D38B
:1045900040F2813100F043F9A06B801E1E2803D346
:1045A00040F2833100F03BF9E06B022818BF042889
:1045B00007D0062818BF082803D040F2853100F044
:1045C0002EF9206C022818BF042807D0062818BF2F
:1045D000082803D040F2863100F021F9386820F035
:1045E00080703860FEF710FA0546386881013FF5A3
:1045F000B0AE206B616B401E090241EA0011E26B14
:10460000E06A52080143206C521E400841EA4251C0
:10461000401E41EA4061A06B41EAC061F96039681F
:1046200041F080713960F86840F08070F860FEF702
:10463000EBF90446386881017FF592AE0020BDE8B1
:10464000F28F386840F0080038603968206A21F03D
:10465000F001014339607968E06921F47F4141EA62
:104660000021796070472DE9F84304000D4647D0DA
:1046700020680FF2983808B1102803D340F2254182
:1046800000F0CDF8002D18BF012D08D0022D1CBF61
:10469000032D042D03D040F2264100F0C0F8DFF8CE
:1046A0004C63306800F00700A84209D23168C9089D
:1046B00045EAC1013160306800F00700A8421FD10F
:1046C0002078DFF89C72C10779D56068A8B101280D
:1046D00017D002280DD0032806D040F23D4100F04B
:1046E0009EF86068032802D13868810107E002283B
:1046F00002D13868810302E018B93868810703D411
:104700008BE038684105FBD5BA686068920840EADA
:104710008202BA60FEF778F98146B868616800F0F5
:104720000C00B0EB810F4AD0FEF76EF9A0EB090048
:1047300041F289318842F0D303203EE020784107DE
:1047400017D5E068002818BFB0F5806F0BD0B0F522
:10475000A06F1CBFB0F5C06FB0F5E06F03D04FF491
:10476000976100F05CF8B968E06821F4E06101430A
:10477000B9602178080718D52069002818BFB0F55E
:10478000806F0BD0B0F5A06F1CBFB0F5C06FB0F557
:10479000E06F03D040F2BF4100F041F8B8682169F2
:1047A00020F4605040EAC100B86000F049F800F021
:1047B00039F8BDE8F24300F087BFBDE8F283207806
:1047C00081071BD5A068002818BF802810D090282A
:1047D00018BFA0280CD0B02818BFC02808D0D028F7
:1047E0001CBFE028F02803D040F2994100F017F8F0
:1047F000B968A06821F0F0010143B960316801F0A7
:1048000007018D429AD23068C00845EAC000306086
:10481000316801F00701A94290D00120CDE7404660
:10482000FEF7D4B8BA68DFF8C811C2F30312895C86
:10483000DFF8A42101F01F01C8401060002070477C
:1048400010B5474A9068D4680023002110F00C008E
:1048500004F0030403D00C2812D1012C1AD11368E0
:104860001C0704D45D4B1C68C4F3032302E01368E7
:10487000C3F30313604C54F8233048B9194628E0B9
:10488000042808BF5D4924D0082822D15C4920E0D3
:104890000C281ED1D168D068C0F30210401C01F072
:1048A0000301022902D0032902D005E0534900E0A8
:1048B0005349B1FBF0F101E0B3FBF0F1D068C0F374
:1048C00006204143D068C0F34160401C4000B1FB6A
:1048D000F0F1084610BD4048006870473E48454A20
:1048E000006813684749C3F3022206E03A48414A88
:1048F000006813684349C3F3C222895C01F01F01B9
:10490000C84070470000000070B504000D4600BFAD
:104910003EA603D140F2566100F01FF81DB940F2E7
:10492000576100F01AF80F2020603248016801F04A
:1049300003016160026802F0F002A260016801F404
:10494000E061E1600068C00800F4E0602061274891
:10495000016801F00701296070BD3046FEF736B8E6
:10496000001002407CB5284E054630680024C10086
:1049700002D500F029FD0EE0306840F08050306034
:10498000316801F080510091009800F01DFD316800
:1049900021F080513160B0F5007F04D1802D0CD919
:1049A000A12D09D304E0802D88BF032405D801D1AF
:1049B000022402E0702D00D101240C480168C908CE
:1049C00044EAC1010160006800F00700A04201D084
:1049D000012076BD002076BD0C000020941002401E
:1049E00090100240FFFFEEFE0070004000200240E9
:1049F0004C920008081002405C9200080024F40069
:104A000000127A00D093000858100240463A5C53D6
:104A1000797374656D5C446F63756D656E74735CFA
:104A2000437562654D585C4C343936546573745C1B
:104A3000447269766572735C53544D33324C3478EA
:104A4000785F48414C5F4472697665725C5372636B
:104A50005C73746D33326C3478785F68616C5F724C
:104A600063632E63000000002DE9F84F0546002423
:104A70002868DFF8B0A5C202A14602D1DB2100F010
:104A8000CEFA2868DFF8A07501052FD5A86EE0B131
:104A9000B0F5800F25D0B0F5000F11D0B0F5400F64
:104AA00018D0E32100F0BBFAA86E70B1B0F5800F0A
:104AB00017D0B0F5000F03D0B0F5400F09D013E0C8
:104AC000396841F48031396004E0002100F0A4FA33
:104AD000044654B9F96FA86E21F440010143F96707
:104AE00004E000F093FAF3E70124A1462868C1042A
:104AF00030D5E86E20B3B0F1807F26D0B0F1007FD2
:104B000012D0B0F1407F13D040F2211100F087FAAB
:104B1000E86EA8B1B0F1807F17D0B0F1007F03D06C
:104B2000B0F1407F04D013E0396841F4803139603E
:104B30007CB9F96FE86E21F040710143F96709E033
:104B4000002100F069FA0446F2E700F05FFAFAE7A4
:104B50000124A1462868DFF8D46481033FD505F11C
:104B600084004FF000084068002818BFB0F5807F2F
:104B700009D0B0F5007F18BFB0F5407F03D04FF4E7
:104B8000AB7100F04CFAF86CC1000AD4F86C40F03C
:104B90008050F8644FF00108F86C00F080500090ED
:104BA0000098DFF88C14086840F480700860FDF706
:104BB0002BFF8346DFF878040168CA0500F1F28113
:104BC000FDF722FFA0EB0B000328F3D30324A1463B
:104BD000B8F1000F03D0F86C20F08050F86428780A
:104BE000C10712D5A86B002818BF012807D00328D9
:104BF00018BF022803D040F2AB1100F010FAF96F91
:104C0000A86B890840EA8101F9672978880712D5DD
:104C1000E86B002818BF042807D00C2818BF082804
:104C200003D040F2B51100F0FAF9F96FE86B21F00A
:104C30000C010143F9672978480712D5286C002830
:104C400018BF102807D0302818BF202803D040F202
:104C5000C11100F0E4F9F96F286C21F03001014333
:104C6000F9672978080712D5686C002818BF402812
:104C700007D0C02818BF802803D040F2CF1100F021
:104C8000CEF9F96F686C21F0C0010143F96729780A
:104C9000C80615D5A86C002818BFB0F5807F09D0CC
:104CA000B0F5407F18BFB0F5007F03D040F2DD11B2
:104CB00000F0B5F9F96FA86C21F440710143F96770
:104CC0002978880615D5E86C002818BFB0F5806FE4
:104CD00009D0B0F5406F18BFB0F5006F03D040F2B7
:104CE000E91100F09CF9F96FE86C21F4406101438F
:104CF000F9672968880515D5286E002818BFB0F512
:104D0000802F09D0B0F5002F18BFB0F5402F03D089
:104D10004FF4F97100F083F9F96F286E21F4402106
:104D20000143F9672968480515D5686E002818BF42
:104D3000B0F5801F09D0B0F5001F18BFB0F5401FB7
:104D400003D040F2F91100F06AF9F96F686E21F4AE
:104D500040110143F9672978480611D5286D0028CC
:104D60001CBFB0F5805FB0F5005F03D040F20121B9
:104D700000F055F9F96F286D21F440510143F967AE
:104D80002978080611D5686D00281CBFB0F5804F42
:104D9000B0F5004F03D040F20D2100F040F9F96F5B
:104DA000686D21F440410143F9672968C80511D5B0
:104DB000A86D00281CBFB0F5803FB0F5003F03D0C0
:104DC00040F2192100F02BF9F96FA86D21F4403160
:104DD0000143F9672968C8020FD5E86D00281CBF98
:104DE0000128022803D040F2252100F018F9F168CB
:104DF000E86D890840EA8101F160296888042DD5B1
:104E0000286F002818BFB0F1806F09D0B0F1006F93
:104E100018BFB0F1406F03D040F2322100F0FFF82C
:104E2000F96F286F00F0EDF8286FB0F1006F0DD129
:104E300000F0E2F812E0FDF7E7FD001B41F28931D6
:104E40008842C0F0CC804FF00309C1E6B0F1806F1A
:104E500004D100F0E0F8010018BF81462868010382
:104E600022D5686F002818BFB0F1806F09D0B0F16B
:104E7000006F18BFB0F1406F03D040F2532100F033
:104E8000CEF8F96F686F00F0BCF8686FB0F1006F92
:104E900002D100F0B1F807E0B0F1806F04D100F06A
:104EA000BAF8010018BF81462868410322D5A86FCF
:104EB000002818BFB0F1806F09D0B0F1006F18BFA3
:104EC000B0F1406F03D04FF41E7100F0A8F8F96FF5
:104ED000A86F00F096F8A86FB0F1006F02D100F053
:104EE0008BF807E0B0F1806F04D100F094F8010076
:104EF00018BF81462868410428D5E86F002818BFEC
:104F0000B0F1805F09D0B0F1005F18BFB0F1405F31
:104F100003D04FF4267100F082F8F96FE86F21F0AA
:104F200040510143F967E86FB0F1805F03D102217E
:104F300000F072F807E0B0F1005F07D1022105F13F
:104F4000200000F035F9010018BF814628680104EF
:104F500011D5D5F88000002818BFB0F1804F03D0DC
:104F60004FF4317100F05BF8F96FD5F8800021F053
:104F700080410143F9672968C80310D555F8840FAB
:104F8000002818BFB0F1004F03D040F2D22100F04A
:104F900046F8F96F286821F000410143F967484657
:104FA000BDE8F28F002C7FF412AE306810F4407030
:104FB0001EBF05F184014A6890420BD03068316809
:104FC00041F48031316020F44070326822F4803244
:104FD00032603060C00706D5FDF716FD0446306824
:104FE00081077FF528AF05F184013268486822F413
:104FF000407202433260EBE5386840F4801038605C
:10500000704721F040610143F9677047002105F1C5
:10501000200000F0CDB80121281D00F013B8504643
:10502000FDF7D4BC6C5300080C10024090100240F5
:10503000007000400248016841F0040101607047BF
:10504000001002402DE9F84300F066F918BF01286E
:105050000C4607D0022818BF032803D040F644317D
:1050600000F071F9706808B1082803D940F645319D
:1050700000F069F9B06808384F2803D340F646318C
:1050800000F061F9B069DFF8C412084203D0DFF81C
:10509000C022104203D040F6473100F054F900F02E
:1050A00049F909D0F96801F0030181422BD150B3CD
:1050B00000F022F90CD026E0012804D023D30328E5
:1050C0001BD016D31FE03A6891071CD500F00AF9EF
:1050D000386820F0806000F033F9814638680101BB
:1050E00053D5FDF791FCA0EB09000328F6D3032567
:1050F0005DE039684A05E9D405E039688A03E5D4FA
:1051000039684A03E2D4012551E0012C19D13069F4
:10511000022818BF042807D0062818BF082803D083
:1051200040F6BE3100F00FF93969DFF83002B2689D
:1051300001403069400841EA0221401E41EA4051E5
:1051400013E07069022818BF042807D0062818BF8A
:10515000082803D04FF43D6100F0F5F83969804824
:10516000B2680140706900F0DEF83961386840F0DB
:10517000806000F0E5F804463868010113D4FDF7BB
:1051800043FC001B0328F7D3B1E7002CBDD1F06826
:10519000801E1E2803D340F69A3100F0D4F83969F6
:1051A00000F0B1F8E1E73969B0690143396196E08F
:1051B0002DE9F84300F0B0F818BF01280C4607D0DD
:1051C000022818BF032803D040F6114100F0BBF8B5
:1051D000706808B1082803D940F6124100F0B3F80E
:1051E000B06808384F2803D340F6134100F0ABF8FD
:1051F00070695849084202D0574A104203D040F61D
:10520000144100F0A0F800F095F809D0F96801F019
:10521000030181422BD150B300F06EF80CD026E090
:10522000012804D023D303281BD016D31FE03A68EB
:1052300091071CD500F056F8386820F0805000F037
:105240007FF881463868810037D5FDF7DDFBA0EB9C
:1052500009000328F6D3032541E039684A05E9D45B
:1052600005E039688A03E5D439684A03E2D40125A8
:1052700035E03069022818BF042807D0062818BF77
:10528000082803D040F69F4100F05DF87969344862
:10529000B2680140306900F046F87961386840F042
:1052A000805000F04DF804463868810013D4FDF7B3
:1052B000ABFB001B0328F7D3CDE7002CD9D1F06856
:1052C000801E1E2803D340F6674100F03CF8796940
:1052D00000F019F8E1E779697069014379612846BE
:1052E000BDE8F283FA68716822F073021043491E28
:1052F00040EA0110F8607047F8687168C0F3021066
:10530000401C884270471748B2680140F06841EA83
:10531000022141EAC06170470646002530680FF25D
:105320004C0800287047400841EA0221401E41EA2B
:105330004061704730680C4FF96811F0030F7047F7
:105340003860FDF761BB4046FDF740BB000011012E
:10535000FFFFEEFE00000101FFFFFEFEFF809FFF4A
:10536000FF80FFF9FF80FF0700100240463A5C53C0
:10537000797374656D5C446F63756D656E74735C91
:10538000437562654D585C4C343936546573745CB2
:10539000447269766572735C53544D33324C347881
:1053A000785F48414C5F4472697665725C53726302
:1053B0005C73746D33326C3478785F68616C5F72E3
:1053C00063635F65782E6300DFF8A800006800F46F
:1053D000C060704710B5B0F5007FDFF8984013D07B
:1053E000B0F5806F02D0B82100F040F8216801F4D8
:1053F000C061B1F5806F05D0206820F4C06040F432
:1054000080602060002010BD206800F4C060B0F50E
:10541000007FF7D02068DFF86010DFF8603020F4FC
:10542000C06040F40070206032200A684243B2FB42
:10543000F3F0401C61694A0503D5002818BF401EDF
:10544000F8D160694105DDD5032010BDDFF83000DB
:1054500006E0DFF82C00016841F40071016070473C
:10546000016841F4806101607047000005A0FDF70C
:10547000ADBA0000007000400C00002040420F0058
:1054800004700040463A5C53797374656D5C446FF8
:1054900063756D656E74735C437562654D585C4CE5
:1054A000343936546573745C447269766572735C22
:1054B00053544D33324C3478785F48414C5F4472DA
:1054C000697665725C5372635C73746D33326C34ED
:1054D00078785F68616C5F7077725F65782E6300C3
:1054E0000901020007D5DFF8342100F00F00104455
:1054F00000F8041C7047DFF828311954704710B5C4
:105500000446072C18BF062C07D0052C1CBF042C02
:10551000032C02D0B72100F06BF8DFF808211068E7
:105520004FF6FF012402084004F4E0640443DFF86E
:10553000F8000443146010BDF8B51546102D04465C
:105540000E460FF2F00703D3CF213846FDF73EFA9F
:10555000102E03D3D0213846FDF738FADFF8C40007
:105560000168C1F30220C0F10701052928BF042109
:10557000021D072A34BF0020C01E012202FA01F1D9
:10558000491E0E40864002FA00F0401E054045EAE2
:1055900006012046BDE8F440A2E738B504462500E0
:1055A00002D5E32100F024F800F01DF8DFF87C00BC
:1055B000FFE701FA04F46D0940F8254031BD10B54C
:1055C000401EB0F1807F01D3012010BD184C6060F7
:1055D0000F214FF0FF30FFF783FF0021A16007206C
:1055E0002060002010BD012104F01F04704700005E
:1055F00010A0FDF7EBB910B504280D4C09D018B177
:105600004FF4CA71FFF7F4FF216821F00401216013
:1056100010BD206840F00400206010BD18ED00E0CF
:1056200000E400E00CED00E00000FA0500E100E01D
:1056300010E000E0463A5C53797374656D5C446F2A
:1056400063756D656E74735C437562654D585C4C33
:10565000343936546573745C447269766572735C70
:1056600053544D33324C3478785F48414C5F447228
:10567000697665725C5372635C73746D33326C343B
:1056800078785F68616C5F636F727465782E630011
:1056900002480168491C0160704700BF8019002062
:1056A0000EB4C0B5024603A800210190009101ABE1
:1056B0000121044878440C3001F080FC06BC5DF800
:1056C00010FB00BFCF3C000018B5014687B0002298
:1056D0001920FFF731FF1920FFF75FFF1448154C21
:1056E000016841F40061016001A9006800F40060F4
:1056F0000090009802A8FFF707F9FFF7F7F80E49A6
:105700000E4B2160B0FBF3F0401E40F2E7326060C8
:105710000021E2602161A1602046FEF773F818B90C
:105720002046FEF7C8F800E0012008B010BD0000D8
:1057300060100240EC180020002C014040420F0095
:1057400080B52148816841F001018160816801F0E4
:10575000010100910099026842F0805202600068E5
:1057600000F08050009000980320FFF7C8FE002250
:1057700000216FF00B00FFF7DFFE002200216FF029
:105780000A00FFF7D9FE002200216FF00900FFF7A1
:10579000D3FE002200216FF00400FFF7CDFE0022AF
:1057A00000216FF00300FFF7C7FE00220F216FF00A
:1057B0000100FFF7C1FEBDE8084000220F214FF0B5
:1057C000FF30FFF7B9BE00BF58100240F8B5040023
:1057D00039D02168A269DFF8D000DFF8D030DFF8D7
:1057E000D050DFF8D060DFF8D070DFF8D0C0DFF83D
:1057F00020E272B1714518BF61451AD0B94218BF95
:10580000B14216D0A94218BF994212D04FF4A971E3
:105810000DE0714518BF61450BD0B94218BFB142C8
:1058200007D0A94218BF994203D040F25711FDF7A3
:10583000CDF804F17005687808B900F027F800F099
:1058400013F8012801D10120F2BD606A08B100F00F
:1058500022F800F013F821F02A0181602068016825
:1058600041F00101016019E024206870206801689E
:10587000490849000160204600F0CCB82068416822
:1058800021F49041416020688168704700212970AF
:105890002046FDF7E8BC204600F073BA2046BDE87C
:1058A000F24000F06EBB0000706000080080004015
:1058B00000500040004C00400048004000440040C0
:1058C00070B504462568E9692A68AB6811F00F00D5
:1058D0000AD188066DD596066BD5216E002967D052
:1058E0002046BDE870400847D80702D412F4907FE4
:1058F0005FD0C80707D5D60505D501202862656F9A
:1059000045F001056567880708D5DD0706D52668D7
:1059100002203062606F40F004006067480708D5DD
:10592000DD0706D5266804203062606F40F0020073
:10593000606708070AD5950601D4D80706D52568FB
:1059400008232B62606F40F008006067606F0028DA
:1059500057D0880605D5910603D5216E09B120469A
:105960008847606F010703D42068816848061AD50C
:10597000204600F065FB206881684A060ED500F0DD
:1059800041F858B10FF2D9618163E06E02F0D4FAA8
:10599000B8B3E06E816BBDE8704008472046BDE8B3
:1059A000704002F0EEBA204602F0EBFA0020606789
:1059B00070BDC80209D55B0207D54FF4801028627C
:1059C0002046BDE8704002F0DDBA080607D5130690
:1059D00005D5616EA9B12046BDE87040084748066C
:1059E0000FD551060DD5286820F0400028602021F1
:1059F00084F87110002060662046BDE8704002F017
:105A0000C2BA70BD816821F040018160E06E7047CC
:105A1000003801402DE9F843044610276268DFF89A
:105A20003435002600259A420FF2446903D340F62C
:105A3000EC2100F0A3F9A068B0F1805F1CBF002842
:105A4000B0F5805F03D040F6ED2100F097F92168B2
:105A5000DFF80485E068414507D1002818BFB0F59C
:105A6000005F1BD04FF42F6116E0B0F5805F18BFC8
:105A7000002809D0B0F5405F18BFB0F5005F03D033
:105A800040F6F42100F07AF9206A002818BFB0F53A
:105A9000006F03D040F6F52100F070F9206900286E
:105AA0001CBFB0F5806FB0F5C06F03D040F6F82191
:105AB00000F064F9616931F00C0000D119B940F6C9
:105AC000F92100F05BF9A069002818BFB0F5807FCC
:105AD00009D0B0F5007F18BFB0F5407F03D040F685
:105AE000FA2100F04BF9E069002818BFB0F5004F2B
:105AF00003D040F6FB2100F041F92268DFF85C0496
:105B00001368A168034020690B4361690343E0699E
:105B10000B43034313605168E06821F44051014393
:105B200051604245A1691CBF206A01439368DFF8B8
:105B3000300423F4306319439160DFF82834DFF830
:105B400028149A4221D1096801F0030103294CD895
:105B5000DFE801F0023A294A0127E169B1F5004F77
:105B60004FF6F07840F0D48067B1012F00F0AA80A2
:105B7000022F00F0AA80042F00F0AC80082F00F064
:105B8000B280B8E0FEF7AAFEA6E0DFF8BC339A4286
:105B90000BD1096811F00C015FD0042914D0082939
:105BA00001D00C290EE002271FE0DFF8C0339A4233
:105BB0000CD1096811F030014FD0102904D02029F0
:105BC000F1D0302910D010E004270EE0DFF87C334C
:105BD0009A4222D1096811F0C0013ED04029F3D089
:105BE0008029E0D0C02900D108274245B5D139002D
:105BF00006D0022F08D0042F31D0082F32D0AFE0CA
:105C0000FEF76CFE00285CD0626802EB420188421D
:105C100002D31303834228D2A2E0DFF834339A423E
:105C20000CD1096811F4407117D0B1F5807FCBD049
:105C3000B1F5007FB7D0B1F5407FC3E74245D4D17D
:105C40000B6813F4406308D0B3F5806FBCD0B3F594
:105C5000006FA8D0B3F5406FB4E70027C5E7FEF7A3
:105C6000EFFDCFE74FF40040CEE737B1022F0AD067
:105C7000042F0ED0082F16D01BE0FEF72FFE00F0E9
:105C800077F879410AE0BA4911EB520045EB05017A
:105C900004E0FEF7D5FD00F06BF86941002302F047
:105CA00073F9064606E0530803F50003B3FBF2F66A
:105CB00000E00125A6F54070AE49884250D2226826
:105CC000D6604EE0FEF712FE06E06068AA4901EBDE
:105CD00050010CE0FEF7B4FD61684A0802EB400297
:105CE000B2FBF1F605E06068410801F58031B1FBD7
:105CF000F0F6B6B200E00125A6F1100040452FD223
:105D000008EA0601C6F3420001432068C16028E0AA
:105D100047B1012F09D0022F0CD0042F08D0082F33
:105D20000ED015E0FEF7DAFD04E0FEF7DFFD01E03E
:105D3000FEF786FD616800EB5100B0FBF1F605E06F
:105D40006068410801F50041B1FBF0F6B6B200E031
:105D50000125A6F11000404502D22168CE6000E086
:105D600001250020206660662846BDE8F283000019
:105D70006268010E560816EB002070474846FCF793
:105D800025BE38B504460FF2E825626AB2F5807F79
:105D900003D340F6144100F0F1F894F82400C10751
:105DA00010D5A06A002818BFB0F5003F03D040F618
:105DB000194100F0E3F821684A68A06A22F4003231
